:100000000C94BA000C94C6030C94CC000C94CC0055
:100010000C94CC000C94CC000C94CC000C94CC0030
:100020000C94CC000C94CC000C94CC000C94CC0020
:100030000C94CC000C94CC000C94CC000C94CC0010
:100040000C94CC000C94CC000C94CC000C94CC0000
:100050000C94CC00DA00F3000C0125013D013D01B8
:100060003D013D013D013D013D013D013D013D01A0
:100070003D013D013D013D013D013D013D013D0190
:100080003D013D013D013D013D013D013D013D0180
:100090003D013D01DA00F3000C0125014A01630135
:1000A0007C019501AD01AD01AD01AD01AD01AD0129
:1000B000AD01AD01AD01AD01AD01AD01AD01AD01D0
:1000C000AD01AD01AD01AD01AD01AD01AD01AD01C0
:1000D000AD01AD01AD01AD01AD01AD014A0163015D
:1000E0007C019501B901BB01BD01BF01C001C00187
:1000F000C001C001C001C001C001C001C001C001F8
:10010000C001C001C001C001C001C001C001C001E7
:10011000C001C001C001C001C001C001C001C001D7
:10012000C001C001B901BB01BD01BF01CC01CE01BD
:10013000D001D201D301D301D301D301D301D30123
:10014000D301D301D301D301D301D301D301D3010F
:10015000D301D301D301D301D301D301D301D301FF
:10016000D301D301D301D301D301D301CC01CE01FB
:10017000D001D20111241FBECFE5D8E0DEBFCDBF34
:1001800020E0A0E6B0E001C01D92A136B207E1F781
:100190000E9433020C9401060C94000090E0FC01D4
:1001A000E154F109E432F10508F067C0E65DFF4F64
:1001B0000C94D805413059F42AB381E090E002C094
:1001C000880F991F6A95E2F7822B8ABB08952AB39C
:1001D00081E090E002C0880F991F6A95E2F7809550
:1001E00082238ABB0895413059F427B381E090E01F
:1001F00002C0880F991F6A95E2F7822B87BB08958A
:1002000027B381E090E002C0880F991F6A95E2F75A
:100210008095822387BB0895413059F424B381E04F
:1002200090E002C0880F991F6A95E2F7822B84BB89
:10023000089524B381E090E002C0880F991F6A9569
:10024000E2F78095822384BB0895413059F421B3AD
:1002500081E090E002C0880F991F6A95E2F7822B37
:1002600081BB089521B381E090E002C0880F991FFF
:100270006A95E2F78095822381BB089590E0FC01A6
:10028000E154F109E432F10508F067C0E25BFF4F89
:100290000C94D805413059F42BB381E090E002C0B2
:1002A000880F991F6A95E2F7822B8BBB08952BB3B9
:1002B00081E090E002C0880F991F6A95E2F780956F
:1002C00082238BBB0895413059F428B381E090E03C
:1002D00002C0880F991F6A95E2F7822B88BB0895A8
:1002E00028B381E090E002C0880F991F6A95E2F779
:1002F0008095822388BB0895413059F425B381E06D
:1003000090E002C0880F991F6A95E2F7822B85BBA7
:10031000089525B381E090E002C0880F991F6A9587
:10032000E2F78095822385BB0895413059F422B3CA
:1003300081E090E002C0880F991F6A95E2F7822B56
:1003400082BB089522B381E090E002C0880F991F1C
:100350006A95E2F78095822382BB089590E0FC01C4
:10036000E154F109E432F10558F4EE58FF4F0C94D2
:10037000D8056ABB089567BB089564BB089561BB47
:10038000089590E0FC01E154F109E432F10558F4DC
:10039000EA56FF4F0C94D8056BBB089568BB0895CF
:1003A00065BB089562BB0895CF93DF93C82FD62F06
:1003B00088B7806288BF8EB580688EBD8EB5806438
:1003C0008EBD41E08C2F0E94CE0041E06D2F8C2F1E
:1003D0000E943E0185E08A95F1F740E06D2F8C2F59
:1003E0000E943E0108B605FEFDCF46B557B588B759
:1003F000806288BF8EB58F7B8EBD08B605FEFDCFAF
:1004000026B537B580E288BF4217530770F4241B26
:10041000350BA8E2B7E80E94DE0520E834E84EE19B
:1004200050E00E94B605C9010FC0241B350B215EA8
:10043000314BA8E2B7E80E94DE0520E834E84EE13F
:1004400050E00E94B605C901DF91CF91089541E0C7
:100450000E94CE00089541E00E943E01089540E0D0
:100460000E943E0108952FEB87E299E021508040E1
:100470009040E1F700C0000040E062E084E40E94A8
:10048000CE0060E082E40E94270265E083E60E94DD
:10049000270261E082E40E94270262E082E40E9477
:1004A000270263E083E60E94270264E083E60E945D
:1004B000270263E083E40E942F0264E083E40E9449
:1004C0002F028BB780648BBF85B7816085BF85B7EE
:1004D000826085BF60E070E080E090EC0E941E04C6
:1004E000EFEBF4ED21E0E150F0402040E1F700C0F7
:1004F000000049E161E486E40E94D70360E083E400
:100500000E94D401E3ECF9E03197F1F700C000005C
:100510000AC060E083E40E94D401E3ECF9E0319783
:10052000F1F700C000008031910598F378940EC077
:1005300060E083E40E94D401E3ECF9E03197F1F745
:1005400000C00000209160002C3310F4409780F729
:1005500040E061E486E40E94D703F8948091600053
:100560008C3308F491C01092600060E082E40E9435
:100570002B02FFE32DE083E0F15020408040E1F7C3
:1005800000C0000060E082E40E942F0264E083E487
:100590000E942B029FE3EDE0F3E09150E040F04039
:1005A000E1F700C0000060E070E080E792E40E94A4
:1005B0001E042FED82E292E0215080409040E1F74E
:1005C00000C000004EE161E482E40E94D70361E0D4
:1005D00083E40E94D401E3ECF9E03197F1F700C025
:1005E00000000AC061E083E40E94D401E3ECF9E07A
:1005F0003197F1F700C000004497A0F740E061E4B4
:1006000082E40E94D703FFE32DE083E0F150204015
:100610008040E1F700C0000060E070E080E792EC0D
:100620000E941E049FE3EDE0F3E09150E040F040B3
:10063000E1F700C0000064E083E40E942F0263E061
:1006400083E40E942B0262E083E40E94D401E3EC85
:10065000F9E03197F1F700C0000013C04EE161E40A
:1006600082E40E94D70365E083E40E942B0283ECBE
:1006700099E00197F1F700C0000062E083E40E9476
:10068000D4010B9758F714C01092600061E082E427
:100690000E942B028FE79AE1E6E081509040E04013
:1006A000E1F700C0000061E082E40E942F0221CF48
:1006B00040E061E482E40E94D7039FE3EDE0F3E0D1
:1006C0009150E040F040E1F700C0000060E070E0D1
:1006D00080E090EC0E941E042FE38DE093E0215017
:1006E00080409040E1F700C0000062E082E40E9498
:1006F0002B02EFE9F6E821E0E150F0402040E1F77D
:1007000000C0000062E082E40E942F028FE996E8B8
:10071000E1E081509040E040E1F700C0000062E07D
:1007200082E40E942B02FFE926E881E0F15020409C
:100730008040E1F700C0000062E082E40E942F02E6
:100740009FE9E6E8F1E09150E040F040E1F700C0B9
:10075000000062E082E40E942B022FE986E891E02B
:10076000215080409040E1F700C0000062E082E448
:100770000E942F02EFE9F6E821E0E150F04020402E
:10078000E1F700C0000080E090E008951F920F9212
:100790000FB60F9211248F93809160008F5F80932A
:1007A00060008F910F900FBE0F901F9018951F93B0
:1007B000CF93DF93C82FD62F142F6FE08D2F0E9479
:1007C000AE01C63441F018F4C23451F00DC0C23647
:1007D00039F0C63649F465E08D2F0E94C10104C08E
:1007E0006AE08D2F0E94C101812F90E00E94FC03DE
:1007F000DF91CF911F91089527B3286027BB23B7BE
:10080000286023BF23B7206423BF2FEFAC01249FB0
:10081000C001259F900D112464E670E00E94A2059E
:100820006CBF83B7816083BF83B7826083BF83B7A8
:10083000806283BF83B78F7E83BF089521B3206119
:1008400021BB2FB521602FBD2FB522602FBD2EB546
:1008500028602EBD2EB520612EBD2FE13EE43BBDAC
:100860002ABD26E237EC41EB50E40E94350520E03A
:1008700030E84BEB54E40E9449040E94B50479BD72
:1008800068BD8EB581608EBD8FB580628FBD0895C5
:100890005058BB27AA270E9460040C94FB040E94B6
:1008A000ED0438F00E94F40420F039F49F3F19F46D
:1008B00026F40C94EA040EF4E095E7FB0C94E404AF
:1008C000E92F0E940C0558F3BA17620773078407D3
:1008D000950720F079F4A6F50C942E050EF4E0951A
:1008E0000B2EBA2FA02D0B01B90190010C01CA01EA
:1008F000A0011124FF27591B99F0593F50F4503E95
:1009000068F11A16F040A22F232F342F4427585F86
:10091000F3CF469537952795A795F0405395C9F79E
:100920007EF41F16BA0B620B730B840BBAF0915056
:10093000A1F0FF0FBB1F661F771F881FC2F70EC0F5
:10094000BA0F621F731F841F48F4879577956795C8
:10095000B795F7959E3F08F0B0CF9395880F08F0B4
:100960009927EE0F9795879508950E94140588F0B2
:100970009F5798F0B92F9927B751B0F0E1F0660F63
:10098000771F881F991F1AF0BA95C9F714C0B130A4
:1009900091F00E942E05B1E008950C942E05672F6A
:1009A000782F8827B85F39F0B93FCCF386957795D3
:1009B0006795B395D9F73EF49095809570956195BC
:1009C0007F4F8F4F9F4F089597F99F6780E870E0A2
:1009D00060E008959FEF80EC089500240A941616B5
:1009E000170618060906089500240A94121613061D
:1009F000140605060895092E0394000C11F48823AB
:100A000052F0BB0F40F4BF2B11F460FF04C06F5FC6
:100A10007F4F8F4F9F4F089557FD9058440F551F9C
:100A200059F05F3F71F04795880F97FB991F61F070
:100A30009F3F79F087950895121613061406551FE7
:100A4000F2CF4695F1DF08C0161617061806991F53
:100A5000F1CF86957105610508940895E894BB2748
:100A600066277727CB0197F908950E9448050C94D3
:100A7000FB040E94ED0438F00E94F40420F095235A
:100A800011F00C94E4040C94EA0411240C942F0546
:100A90000E940C0570F3959FC1F3950F50E0551F10
:100AA000629FF001729FBB27F00DB11D639FAA27C3
:100AB000F00DB11DAA1F649F6627B00DA11D661F12
:100AC000829F2227B00DA11D621F739FB00DA11D33
:100AD000621F839FA00D611D221F749F3327A00DED
:100AE000611D231F849F600D211D822F762F6A2F89
:100AF00011249F5750409AF0F1F088234AF0EE0FEE
:100B0000FF1FBB1F661F771F881F91505040A9F71A
:100B10009E3F510580F00C94E4040C942F055F3F38
:100B2000E4F3983ED4F3869577956795B795F79556
:100B3000E7959F5FC1F7FE2B880F911D96958795CE
:100B400097F9089597FB072E16F4009407D077FDC8
:100B500009D00E94ED0507FC05D03EF490958195E3
:100B60009F4F0895709561957F4F0895A1E21A2EC9
:100B7000AA1BBB1BFD010DC0AA1FBB1FEE1FFF1F41
:100B8000A217B307E407F50720F0A21BB30BE40B91
:100B9000F50B661F771F881F991F1A9469F76095D8
:100BA0007095809590959B01AC01BD01CF01089592
:100BB000EE0FFF1F0590F491E02D0994A29FB00164
:100BC000B39FC001A39F700D811D1124911DB29F81
:100BD000700D811D1124911D0895AA1BBB1B51E1AD
:100BE00007C0AA1FBB1FA617B70710F0A61BB70B9D
:100BF000881F991F5A95A9F780959095BC01CD0142
:060C00000895F894FFCFF7
:00000001FF
